:100000000C9463000C948B000C948B000C94A6054C
:100010000C94A6050C94A6050C948B000C948B00F4
:100020000C948B000C948B000C948B000C948B0024
:100030000C948B000C948B000C948B000C948B0014
:100040000C945C050C948B000C942A050C9404050C
:100050000C948B000C948B000C948B000C948B00F4
:100060000C948B000C948B000000000024002700EF
:100070002A0000000008000201000003040700003D
:1000800000000000000000000000230026002900FE
:1000900000000000250028002B00040404040404D0
:1000A0000404020202020202030303030303010227
:1000B00004081020408001020408102001020408F6
:1000C00010201E06C70811241FBECFEFD8E0DEBFE8
:1000D000CDBF11E0A0E0B1E0E0E8F2E102C00590A0
:1000E0000D92AC37B107D9F722E0ACE7B1E001C01F
:1000F0001D92A13AB207E1F710E0C2E6D0E004C0D9
:100100002197FE010E942D09C136D107C9F70E942F
:10011000FF060C9433090C940000AF92BF92CF926B
:10012000DF92EF92FF920F931F93CF93DF936C01B7
:100130007B018B01040F151FEB015E01AE18BF0898
:10014000C017D10759F06991D601ED91FC9101904A
:10015000F081E02DC6010995892B79F7C501DF9162
:10016000CF911F910F91FF90EF90DF90CF90BF90B4
:10017000AF900895FC01538D448D252F30E0842FDE
:1001800090E0821B930B541710F0CF9608950197BF
:100190000895FC01918D828D981761F0A28DAE0FAC
:1001A000BF2FB11D5D968C91928D9F5F9F73928F33
:1001B00090E008958FEF9FEF0895FC01918D828D5F
:1001C000981731F0828DE80FF11D858D90E008952C
:1001D0008FEF9FEF0895FC01918D228D892F90E084
:1001E000805C9F4F821B91098F73992708958DEC36
:1001F00091E00E94EB0021E0892B09F420E0822F9E
:10020000089580E090E0892B29F00E94F700811189
:100210000C9400000895FC01A48DA80FB92FB11D06
:10022000A35ABF4F2C91848D90E001968F7399272C
:10023000848FA689B7892C93A089B1898C9183700A
:1002400080648C93938D848D981306C00288F38903
:10025000E02D80818F7D80830895EF92FF920F9330
:100260001F93CF93DF93EC0181E0888F9B8D8C8D62
:1002700098131AC0E889F989808185FF15C09FB756
:10028000F894EE89FF896083E889F9898081837019
:10029000806480839FBF81E090E0DF91CF911F91C8
:1002A0000F91FF90EF900895F62E0B8D10E00F5FE9
:1002B0001F4F0F731127E02E8C8D8E110CC00FB6BF
:1002C00007FCFACFE889F989808185FFF5CFCE0157
:1002D0000E940B01F1CFEB8DEC0FFD2FF11DE35AC6
:1002E000FF4FF0829FB7F8940B8FEA89FB898081DA
:1002F0008062CFCFCF93DF93EC01888D8823B9F054
:10030000AA89BB89E889F9898C9185FD03C0808120
:1003100086FD0DC00FB607FCF7CF8C9185FFF2CF9D
:10032000808185FFEDCFCE010E940B01E9CFDF91E7
:10033000CF91089590E0FC01EE58FF4F2491FC010D
:10034000E255FF4F3491FC01E656FF4FE491EE2356
:10035000C9F0222339F0233001F1A8F4213019F13A
:10036000223029F1F0E0EE0FFF1FE057FF4FA5917B
:10037000B4918FB7F894EC91611126C030953E236B
:100380003C938FBF08952730A9F02830C9F024305E
:1003900049F7809180008F7D03C0809180008F7726
:1003A00080938000DFCF84B58F7784BDDBCF84B5A9
:1003B0008F7DFBCF8091B0008F778093B000D2CF3C
:1003C0008091B0008F7DF9CF3E2BDACFCF93DF93B2
:1003D00090E0FC01E255FF4F249186569F4FFC01AF
:1003E00084918823D1F090E0880F991FFC01E8598F
:1003F000FF4FA591B491FC01E057FF4FC591D491F7
:1004000061110EC09FB7F8948C91E22FE0958E2376
:100410008C932881E223E8839FBFDF91CF910895D9
:100420008FB7F894EC91E22BEC938FBFF6CF3FB7E8
:10043000F8948091C1019091C201A091C301B09143
:10044000C40126B5A89B05C02F3F19F00196A11D38
:10045000B11D3FBFBA2FA92F982F8827BC01CD010E
:10046000620F711D811D911D42E0660F771F881F6D
:10047000991F4A95D1F708958F929F92AF92BF929C
:10048000CF92DF92EF92FF924B015C010E94170224
:100490006B017C010E9417026C197D098E099F096E
:1004A000683E734081059105A8F321E0821A910806
:1004B000A108B10888EEC80E83E0D81EE11CF11C2B
:1004C00081149104A104B10429F7FF90EF90DF900B
:1004D000CF90BF90AF909F908F9008952091C701CB
:1004E0003091C8012817390771F49091C5018091A6
:1004F000C601981741F0E091C501F0E0E458FE4FC5
:10050000808190E008958FEF9FEF08950895EF9216
:10051000FF920F931F93CF93DF93DC015C96ED90D6
:10052000FC905D97E114F10479F481E090E013967A
:100530009C938E93129790E080E0DF91CF911F9172
:100540000F91FF90EF9008955196ED91FC91529785
:1005500050968C915097982F90950FB75E962C914E
:100560005E97122F127021FD6095F894208111235F
:1005700019F1282B2083E7012197F1F728E0462F76
:1005800050E0308160FF1AC0382B3083E70121979B
:10059000F1F7BA0175956795215089F7112381F01C
:1005A0008081892380830FBF5C968D919C910197F8
:1005B000F1F781E090E0C1CF2923DCCF3923E5CFEB
:1005C0009081892BEFCF2091C7013091C801281766
:1005D000390771F48091C6012091C50190E0805CDB
:1005E0009F4F821B910960E470E00E94E308089528
:1005F00090E080E008952091C7013091C80128174C
:100600003907B9F49091C5018091C601981789F016
:10061000E091C501F0E0E458FE4F80812091C501D2
:1006200030E02F5F3F4F2F7333272093C50190E0B9
:1006300008958FEF9FEF0895089590E080E008956A
:10064000CF93DF93EC0160E08E810E949A0161E01C
:100650008E810E949A0160E08E810E949A018BE84F
:1006600091E00197F1F7DF91CF910895CF92DF925A
:10067000EF92FF920F931F93CF93DF936C017C0156
:1006800087E0E80EF11CD0E0C0E0062F10E0B801D2
:100690000C2E02C0759567950A94E2F76170F70118
:1006A00081917F010E949A012196C430D10579F78A
:1006B000C601DF91CF911F910F91FF90EF90DF90D6
:1006C000CF900C942003CF92DF92EF92FF920F9382
:1006D0001F93CF93DF93EC01F62E642F8C810E9441
:1006E0009A018D818F3F19F060E00E949A010F2DD1
:1006F00010E08F8584FF25C06E0187E0C80ED11CF5
:10070000F12CE12CB8010E2C02C0759567950A9466
:10071000E2F76170F60181916F010E949A01FFEF8B
:10072000EF1AFF0A88E0E816F10461F7CE01DF91C5
:10073000CF911F910F91FF90EF90DF90CF900C948D
:100740002003B80184E0759567958A95E1F7CE019D
:100750000E9436036F2DCE01DF91CF911F910F9133
:10076000FF90EF90DF90CF900C94360340E0682F1D
:1007700089E892E00C946303CF93DF93823029F4ED
:100780009091980298609093980280939C021092A6
:100790009D0280E480939E0280E180939F0280E529
:1007A0008093A00261E080918D020E94E601809119
:1007B0008E028F3F19F061E00E94E60161E08091B6
:1007C0008F020E94E601C9E8D2E09E01295832401A
:1007D0008091980284FD0BC084E090E02196281758
:1007E000390744F461E08E810E94E601EECF88E093
:1007F00090E0F4CF8BE39DE00197F1F760E080910A
:100800008D020E949A0160E080918F020E949A01FD
:1008100080918E028F3F19F060E00E949A018091D2
:10082000980284FD39C063E089E892E00E943603B3
:10083000CBE4D6E4CE010197F1F763E089E892E0DA
:100840000E9436032197F1F763E089E892E00E9465
:10085000360383E592E00197F1F762E089E892E0E0
:100860000E9436038091980280620E94B60384E061
:10087000809399028CE00E94B60381E00E94B60347
:100880008BE39FE10197F1F782E080939A0286E083
:10089000DF91CF910C94B60380620E94B6038BE483
:1008A00096E40197F1F78091980280620E94B60366
:1008B00083E592E00197F1F78091980280620E94AF
:1008C000B603D0CF90919C02891710F08FEF890F5B
:1008D000E82FF0E0E757FD4F848980680C94B60359
:1008E00041E00E94630381E090E00895FB010190E4
:1008F0000020E9F73197AF01461B570BDC01ED9162
:10090000FC910280F381E02D09948F929F92AF9227
:10091000BF92EF92FF920F931F93CF93DF93CDB7C8
:10092000DEB7A1970FB6F894DEBF0FBECDBF7C0136
:10093000FA01CB0119A2223008F42AE08E010F5DE2
:100940001F4F822E912CB12CA12CBF01A501940127
:100950000E94F708F901CA016A300CF5605DD80100
:100960006E938D01232B242B252B79F790E080E0CB
:10097000109721F0BD01C7010E947604A1960FB621
:10098000F894DEBF0FBECDBFDF91CF911F910F91C5
:10099000FF90EF90BF90AF909F908F900895695C0B
:1009A000DECFCF92DF92EF92FF920F931F93CF9300
:1009B000DF93EC016A017B01E881F9810190F0810C
:1009C000E02D6DE209958C0144275527BA014C1999
:1009D0005D096E097F092AE0CE010E948504800F1F
:1009E000911FDF91CF911F910F91FF90EF90DF90BA
:1009F000CF900895AB01770F660B770B77FD0C94C2
:100A0000D1042AE00C9485041F920F920FB60F9226
:100A100011242F933F934F935F936F937F938F9303
:100A20009F93AF93BF93EF93FF938DEC91E00E9460
:100A30000B01FF91EF91BF91AF919F918F917F91AA
:100A40006F915F914F913F912F910F900FBE0F903B
:100A50001F9018951F920F920FB60F9211242F938B
:100A60008F939F93EF93FF93E091DD01F091DE016F
:100A70008081E091E301F091E40182FD1BC090814F
:100A80008091E6018F5F8F732091E701821741F01B
:100A9000E091E601F0E0E353FE4F958F8093E6018D
:100AA000FF91EF919F918F912F910F900FBE0F901B
:100AB0001F9018958081F4CF1F920F920FB60F925E
:100AC00011242F933F938F939F93AF93BF93809164
:100AD000BD019091BE01A091BF01B091C0013091C4
:100AE000BC0123E0230F2D3758F50196A11DB11D40
:100AF0002093BC018093BD019093BE01A093BF01E0
:100B0000B093C0018091C1019091C201A091C30135
:100B1000B091C4010196A11DB11D8093C1019093B4
:100B2000C201A093C301B093C401BF91AF919F9143
:100B30008F913F912F910F900FBE0F901F9018959E
:100B400026E8230F0296A11DB11DD2CF1F920F924E
:100B50000FB60F9211242F933F934F935F936F9390
:100B60007F938F939F93AF93BF93EF93FF93E09106
:100B7000C701F091C801309749F0A685B7858585F2
:100B8000968D91FF14C09C918923A1F4FF91EF9160
:100B9000BF91AF919F918F917F916F915F914F9195
:100BA0003F912F910F900FBE0F901F9018959C9121
:100BB000892361F7A389B4899C91858980958923CC
:100BC0008C93868997890197F1F7608D718DA68541
:100BD000B785558538E020E0CB010197F1F7822FEA
:100BE00090E095958795282F4C91452309F0206832
:100BF000315091F7868D81FD20958091C60190E05E
:100C000001968F7399273091C501381799F0A091FB
:100C1000C601B0E0A458BE4F2C938093C601828DCC
:100C2000938D0197F1F7A389B4898C919589892BCC
:100C30008C93ACCF868D8160868FF1CFCF92DF927F
:100C4000EF92FF921092D0011092CF0198EEC92E30
:100C500093E0D92EE12CF12CC092D101D092D20197
:100C6000E092D301F092D40187E091E09093CE011D
:100C70008093CD0185EC90E09093DA018093D901C7
:100C800084EC90E09093DC018093DB0180EC90E0B9
:100C90009093DE018093DD0181EC90E09093E00180
:100CA0008093DF0182EC90E09093E2018093E10178
:100CB00086EC90E09093E4018093E3011092E601CA
:100CC0001092E7011092E8011092E90110928C0253
:100CD00010928B028BE291E090938A0280938902BA
:100CE00082E080938D028FEF80938E0283E0809369
:100CF0008F0284E08093900285E08093910286E0E9
:100D00008093920287E08093930210929402109253
:100D1000950210929602109297021092980281E02A
:100D20000E94BC0310926D0210926C02C0926E027F
:100D3000D0926F02E0927002F092710289E191E02C
:100D400090936B0280936A0210928102109280024B
:100D500010928302109282021092850210928402F5
:100D60001092870210928602609188026E7F6D7FDA
:100D7000609388026695617081E0682789E00E942F
:100D80009A0161E089E00E94E601E7EBF0E0E4917E
:100D9000E0937A02E3EAF0E0E491F0E0EE0FFF1F67
:100DA000E057FF4F8591949190937C0280937B0252
:100DB00060E088E00E94E6018091880281FD04C025
:100DC00061E088E00E949A0188E080937602E6EB79
:100DD000F0E0E491E0937702E2EAF0E0E491F0E001
:100DE000EE0FFF1FEA57FF4F859194919093790280
:100DF00080937802FF90EF90DF90CF9008957894E1
:100E000084B5826084BD84B5816084BD85B582600F
:100E100085BD85B5816085BD80916E0081608093C0
:100E20006E00109281008091810082608093810029
:100E30008091810081608093810080918000816039
:100E4000809380008091B10084608093B100809194
:100E5000B00081608093B00080917A0084608093BC
:100E60007A0080917A00826080937A0080917A0083
:100E7000816080937A0080917A00806880937A0004
:100E80001092C100E091DD01F091DE0182E08083EB
:100E9000E091D901F091DA011082E091DB01F0914B
:100EA000DC018FEC80831092E501E091E101F0918B
:100EB000E20186E08083E091DF01F091E001808132
:100EC00080618083E091DF01F091E00180818860A2
:100ED0008083E091DF01F091E00180818068808370
:100EE000E091DF01F091E00180818F7D808310929D
:100EF0008502109284021092830210928202109254
:100F00008102109280028DE991E090938702809394
:100F1000860290917602963108F047C02DEB30E0C2
:100F200030938102209380022BE931E030938302D9
:100F3000209382022CE231E03093850220938402D8
:100F40002091680084E0983048F031E09E3008F449
:100F500030E081E001C0880F3A95EAF7822B809358
:100F600068002DE630E0983050F02BE630E09E30FF
:100F700030F02CE630E0963110F030E020E0309395
:100F80007E0220937D02292F30E0983008F0ECC0DB
:100F900081E001C0880F9A95EAF780937F028091E3
:100FA0008602909187020197F1F7809184029091D7
:100FB0008502892B49F1E091C701F091C80182E0D7
:100FC000EA36F80709F1309739F0A389B4899C9182
:100FD0008589809589238C93809188028E7F809368
:100FE00088021092C6011092C5018AE692E09093A1
:100FF000C8018093C701E0917D02F0917E0280815B
:1010000090917F02892B808382E00E94BC0380E064
:101010000E94620463E371E089E892E00E94760432
:1010200081E00E94620464E471E089E892E00E9439
:10103000760460ED77E080E090E00E943C0281E081
:101040000E94B6038BE39FE10197F1F7C0E0D0E087
:101050008DEC91E00E94EB0003970CF440C08DEC06
:1010600091E00E94C90080930001813461F48DEC0D
:1010700091E00E94C900809301018DEC91E00E94F3
:10108000C900809302016091010170E07093CC016E
:101090006093CB018091020190E09093CA0180930C
:1010A000C9018DEC91E00E94FA0465E571E08DECD8
:1010B00091E00E9476044091C9015091CA01052E29
:1010C000000C660B770B77FF5CC08DEC91E00E9403
:1010D000D10469E571E08DEC91E00E94760480E036
:1010E0000E9462046CE571E089E892E00E94760457
:1010F0006091CB017091CC0189E892E00E94FA04E2
:1011000066E671E089E892E00E94760481E00E9440
:1011100062046AE671E089E892E00E9476046091D8
:10112000C9017091CA0189E892E00E94FA0441E085
:101130006FED89E892E00E94630367E771E089E858
:1011400092E00E94760464E670E080E090E00E9405
:101150003C02209709F47CCF0E94F700882309F411
:1011600077CF0E94000074CF9E3040F428503109A0
:1011700081E001C0880F2A95EAF70FCF2E50310980
:10118000F7CF2AE08DEC91E00E948504A2CF89E19F
:1011900091E090936B0280936A028091C7019091D5
:1011A000C8018A56924071F4E0917D02F0917E026E
:1011B000908180917F028095892380831092C8015D
:1011C0001092C701089597FB072E16F4009407D0DC
:1011D00077FD09D00E94190907FC05D03EF49095CF
:1011E00081959F4F0895709561957F4F0895A1E275
:1011F0001A2EAA1BBB1BFD010DC0AA1FBB1FEE1F91
:10120000FF1FA217B307E407F50720F0A21BB30BDB
:10121000E40BF50B661F771F881F991F1A9469F757
:1012200060957095809590959B01AC01BD01CF01B3
:101230000895AA1BBB1B51E107C0AA1FBB1FA6171D
:10124000B70710F0A61BB70B881F991F5A95A9F76F
:1012500080959095BC01CD010895EE0FFF1F05907C
:10126000F491E02D099410E0C2E6D0E004C0FE0144
:101270000E942D092196C336D107C9F7F894FFCFF4
:10128000303030000000002D018D00BA007A01EBF3
:1012900000C900DD000000000087028D001D0386EC
:1012A00002E302FB026E020000000070048D001DCC
:1012B000031C032057454C434F4D4520546F2020BD
:1012C0004D792000596F755475626520204368611F
:1012D0006E6E656C00200920000D0A0048756D696E
:1012E000646974793A002520200054656D70657238
:0C12F00061747572653A00432020000014
:00000001FF
