:100000000C9463000C948B000C948B000C94C9042A
:100010000C94C9040C94C9040C948B000C948B00B0
:100020000C948B000C948B000C948B000C948B0024
:100030000C948B000C948B000C948B000C948B0014
:100040000C947F040C948B000C944D040C942704A6
:100050000C948B000C948B000C948B000C948B00F4
:100060000C948B000C948B000000000024002700EF
:100070002A0000000008000201000003040700003D
:1000800000000000000000000000230026002900FE
:1000900000000000250028002B00040404040404D0
:1000A0000404020202020202030303030303010227
:1000B00004081020408001020408102001020408F6
:1000C00010204105020811241FBECFEFD8E0DEBF8B
:1000D000CDBF11E0A0E0B1E0E2EDF4E102C0059097
:1000E0000D92A632B107D9F722E0A6E2B1E001C035
:1000F0001D92AC34B207E1F710E0C2E6D0E004C0D4
:100100002197FE010E94560AC136D107C9F70E9405
:10011000F5050C945C0A0C940000AF92BF92CF924C
:10012000DF92EF92FF920F931F93CF93DF936C01B7
:100130007B018B01040F151FEB015E01AE18BF0898
:10014000C017D10759F06991D601ED91FC9101904A
:10015000F081E02DC6010995892B79F7C501DF9162
:10016000CF911F910F91FF90EF90DF90CF90BF90B4
:10017000AF900895FC01538D448D252F30E0842FDE
:1001800090E0821B930B541710F0CF9608950197BF
:100190000895FC01918D828D981761F0A28DAE0FAC
:1001A000BF2FB11D5D968C91928D9F5F9F73928F33
:1001B00090E008958FEF9FEF0895FC01918D828D5F
:1001C000981731F0828DE80FF11D858D90E008952C
:1001D0008FEF9FEF0895FC01918D228D892F90E084
:1001E000805C9F4F821B91098F739927089587E741
:1001F00091E00E94EB0021E0892B09F420E0822F9E
:10020000089580E090E0892B29F00E94F700811189
:100210000C9400000895FC01A48DA80FB92FB11D06
:10022000A35ABF4F2C91848D90E001968F7399272C
:10023000848FA689B7892C93A089B1898C9183700A
:1002400080648C93938D848D981306C00288F38903
:10025000E02D80818F7D80830895EF92FF920F9330
:100260001F93CF93DF93EC0181E0888F9B8D8C8D62
:1002700098131AC0E889F989808185FF15C09FB756
:10028000F894EE89FF896083E889F9898081837019
:10029000806480839FBF81E090E0DF91CF911F91C8
:1002A0000F91FF90EF900895F62E0B8D10E00F5FE9
:1002B0001F4F0F731127E02E8C8D8E110CC00FB6BF
:1002C00007FCFACFE889F989808185FFF5CFCE0157
:1002D0000E940B01F1CFEB8DEC0FFD2FF11DE35AC6
:1002E000FF4FF0829FB7F8940B8FEA89FB898081DA
:1002F0008062CFCFCF93DF93EC01888D8823B9F054
:10030000AA89BB89E889F9898C9185FD03C0808120
:1003100086FD0DC00FB607FCF7CF8C9185FFF2CF9D
:10032000808185FFEDCFCE010E940B01E9CFDF91E7
:10033000CF910895833081F028F4813099F0823094
:10034000A9F008958730A9F08830C9F08430B1F45D
:10035000809180008F7D03C0809180008F77809393
:100360008000089584B58F7784BD089584B58F7D0E
:10037000FBCF8091B0008F778093B000089580917B
:10038000B0008F7DF9CFCF93DF93282F30E0F901B4
:10039000EE58FF4F8491F901E255FF4FD491F901D6
:1003A000E656FF4FC491CC23A1F081110E949A011F
:1003B000EC2FF0E0EE0FFF1FEA57FF4FA591B4912D
:1003C000EC91ED2381E090E009F480E0DF91CF91A2
:1003D000089580E090E0FACF1F93CF93DF93282F0A
:1003E00030E0F901EE58FF4F8491F901E255FF4FDB
:1003F000D491F901E656FF4FC491CC23A9F0162FF2
:1004000081110E949A01EC2FF0E0EE0FFF1FE057E0
:10041000FF4FA591B4918FB7F894EC91111108C0DA
:10042000D095DE23DC938FBFDF91CF911F9108958C
:10043000DE2BF8CFCF93DF9390E0FC01E255FF4F26
:10044000249186569F4FFC0184918823D1F090E03F
:10045000880F991FFC01E859FF4FA591B491FC0149
:10046000E057FF4FC591D49161110EC09FB7F8942A
:100470008C91E22FE0958E238C932881E223E883F0
:100480009FBFDF91CF9108958FB7F894EC91E22B45
:10049000EC938FBFF6CF3FB7F894809167019091AE
:1004A0006801A0916901B0916A0126B5A89B05C0B9
:1004B0002F3F19F00196A11DB11D3FBFBA2FA92FE3
:1004C000982F8827BC01CD01620F711D811D911DE0
:1004D00042E0660F771F881F991F4A95D1F708954C
:1004E0008F929F92AF92BF92CF92DF92EF92FF9244
:1004F0004B015C010E944B026B017C010E944B028C
:100500006C197D098E099F09683E7340810591052C
:10051000A8F321E0821A9108A108B10888EEC80E5C
:1005200083E0D81EE11CF11C81149104A104B104E4
:1005300029F7FF90EF90DF90CF90BF90AF909F9002
:100540008F90089520916D0130916E012817390721
:1005500071F490916B0180916C01981741F0E091DA
:100560006B01F0E0EA5DFE4F808190E008958FEF2F
:100570009FEF08950895EF92FF920F931F93CF93EB
:10058000DF93DC015C96ED90FC905D97E114F10443
:1005900079F481E090E013969C938E93129790E00B
:1005A00080E0DF91CF911F910F91FF90EF90089520
:1005B0005196ED91FC91529750968C915097982FAF
:1005C00090950FB75E962C915E97122F127021FDB9
:1005D0006095F8942081112319F1282B2083E701DD
:1005E0002197F1F728E0462F50E0308160FF1AC0D4
:1005F000382B3083E7012197F1F7BA01759567959C
:10060000215089F7112381F08081892380830FBFD6
:100610005C968D919C910197F1F781E090E0C1CFBC
:100620002923DCCF3923E5CF9081892BEFCF20918F
:100630006D0130916E012817390771F480916C01BA
:1006400020916B0190E0805C9F4F821B910960E4D8
:1006500070E00E942E0A089590E080E008952091B5
:100660006D0130916E0128173907B9F490916B0133
:1006700080916C01981789F0E0916B01F0E0EA5DE0
:10068000FE4F808120916B0130E02F5F3F4F2F7331
:10069000332720936B0190E008958FEF9FEF08952B
:1006A00090E080E00895EF92FF921F93CF93DF9345
:1006B0002FB7F8948091730190917401A091750106
:1006C000B09176012FBF40911C0250911D026091A4
:1006D0001E0270911F0284179507A607B70740F402
:1006E00010921C0210921D0210921E0210921F0204
:1006F00020912002211118C040911C0250911D022E
:1007000060911E0270911F02841B950BA60BB70B04
:10071000803D9740A105B10538F481E0DF91CF918C
:100720001F91FF90EF900895109220022FB7F89438
:100730008091730190917401A0917501B09176013F
:100740002FBF80931C0290931D02A0931E02B093B2
:100750001F021092180210921702109216021092A5
:1007600015021092140261E080911A020E94EC01BD
:100770006AEF70E080E090E00E94700261E080919A
:100780001A020E941A0260E080911A020E94EC0193
:1007900064E170E080E090E00E947002F89461E013
:1007A00080911A020E94EC018BE990E00197F1F729
:1007B00060E080911A020E941A0210E081E0C0E01D
:1007C000D0E0E82EF12C80911A020E94C3018E1510
:1007D0009F0519F4DF5FDF3FB1F780911A020E9495
:1007E000C301DF3FC1F0C43098F0C0FD11C0E12F5C
:1007F000E695E695E695F0E0EC5EFD4F9081990F69
:10080000908320911B022D1710F4916090831F5F3D
:10081000CF5FC535A9F678941832B8F04091180228
:100820002091140280911502280F3327331F8091E5
:100830001602280F311D80911702820F932F911DF0
:1008400099274817190609F468CF80E067CF1F92EF
:100850000F920FB60F9211242F933F934F935F93F4
:100860006F937F938F939F93AF93BF93EF93FF9378
:1008700087E791E00E940B01FF91EF91BF91AF914B
:100880009F918F917F916F915F914F913F912F91A8
:100890000F900FBE0F901F9018951F920F920FB6DA
:1008A0000F9211242F938F939F93EF93FF93E091D7
:1008B0008701F09188018081E0918D01F0918E0196
:1008C00082FD1BC09081809190018F5F8F7320917A
:1008D0009101821741F0E0919001F0E0E958FE4F5C
:1008E000958F80939001FF91EF919F918F912F9120
:1008F0000F900FBE0F901F9018958081F4CF1F921C
:100900000F920FB60F9211242F933F938F939F93C3
:10091000AF93BF938091730190917401A091750181
:10092000B09176013091660123E0230F2D3758F501
:100930000196A11DB11D20936601809373019093D0
:100940007401A0937501B093760180916701909135
:100950006801A0916901B0916A010196A11DB11DC4
:100960008093670190936801A0936901B0936A0135
:10097000BF91AF919F918F913F912F910F900FBE9B
:100980000F901F90189526E8230F0296A11DB11D08
:10099000D2CF1F920F920FB60F9211242F933F9335
:1009A0004F935F936F937F938F939F93AF93BF9377
:1009B000EF93FF93E0916D01F0916E01309749F054
:1009C000A685B7858585968D91FF14C09C91892356
:1009D000A1F4FF91EF91BF91AF919F918F917F9182
:1009E0006F915F914F913F912F910F900FBE0F909C
:1009F0001F9018959C91892361F7A389B4899C91D4
:100A00008589809589238C93868997890197F1F749
:100A1000608D718DA685B785558538E020E0CB01C6
:100A20000197F1F7822F90E095958795282F4C91AB
:100A3000452309F02068315091F7868D81FD20957E
:100A400080916C0190E001968F73992730916B0132
:100A5000381799F0A0916C01B0E0AA5DBE4F2C93BD
:100A600080936C01828D938D0197F1F7A389B489EE
:100A70008C919589892B8C93ACCF868D8160868FE4
:100A8000F1CF10927A011092790188EE93E0A0E004
:100A9000B0E080937B0190937C01A0937D01B093A3
:100AA0007E0124E031E0309378012093770125EC3A
:100AB00030E0309384012093830124EC30E03093C4
:100AC00086012093850120EC30E03093880120934B
:100AD000870121EC30E030938A012093890122ECD8
:100AE00030E030938C0120938B0126EC30E0309382
:100AF0008E0120938D01109290011092910110921D
:100B00009201109293011092300210922F02809362
:100B1000310290933202A0933302B093340286E103
:100B200091E090932E0280932D0210924402109235
:100B3000430210924602109245021092480210920F
:100B4000470210924A021092490260914B026E7F56
:100B50006D7F60934B026695617081E0682789E044
:100B60000E94EC0161E089E00E941A02E7EBF0E0EC
:100B7000E491E0933D02E3EAF0E0E491F0E0EE0F6F
:100B8000FF1FE057FF4F8591949190933F02809310
:100B90003E0260E088E00E941A0280914B0281FDD3
:100BA00004C061E088E00E94EC0188E08093390293
:100BB000E6EBF0E0E491E0933A02E2EAF0E0E4915F
:100BC000F0E0EE0FFF1FEA57FF4F8591949190934D
:100BD0003C0280933B028EE080931A0286E0809371
:100BE0001B0281E0809320020895789484B582608E
:100BF00084BD84B5816084BD85B5826085BD85B5C1
:100C0000816085BD80916E00816080936E0010923E
:100C100081008091810082608093810080918100B9
:100C2000816080938100809180008160809380004A
:100C30008091B10084608093B1008091B0008160A8
:100C40008093B00080917A00846080937A008091D4
:100C50007A00826080937A0080917A00816080932C
:100C60007A0080917A00806880937A001092C100A7
:100C7000E0918701F091880182E08083E091830117
:100C8000F09184011082E0918501F09186018FEC52
:100C9000808310928F01E0918B01F0918C0186E0AE
:100CA0008083E0918901F0918A0180818061808355
:100CB000E0918901F0918A01808188608083E091D0
:100CC0008901F0918A01808180688083E0918901A7
:100CD000F0918A0180818F7D80831092480210926A
:100CE000470210924602109245021092440210925E
:100CF00043028DE991E090934A02809349029091DA
:100D00003902963108F047C02DEB30E030934402B1
:100D1000209343022BE931E03093460220934502B1
:100D20002CE231E030934802209347022091680082
:100D300084E0983048F031E09E3008F430E081E003
:100D400001C0880F3A95EAF7822B809368002DE660
:100D500030E0983050F02BE630E09E3030F02CE65A
:100D600030E0963110F030E020E0309341022093E3
:100D70004002292F30E0983008F01BC181E001C00B
:100D8000880F9A95EAF780934202809149029091E8
:100D90004A020197F1F78091470290914802892B0E
:100DA00049F1E0916D01F0916E0182E0ED32F807BA
:100DB00009F1309739F0A389B4899C918589809590
:100DC00089238C9380914B028E7F80934B021092EB
:100DD0006C0110926B018DE292E090936E01809312
:100DE0006D01E0914002F0914102808190914202B8
:100DF000892B808360E080911A020E941A0261E0D0
:100E000080911A020E94EC0110921C0210921D02A5
:100E100010921E0210921F0260ED77E080E090E0D9
:100E20000E947002C0E0D0E0C12CD12C80ECE82EF2
:100E30008FE7F82E0E945303882309F4C7C06091FE
:100E4000140270E090E080E00E94330920E030E07E
:100E500040E853E40E94C1094B015C016091150216
:100E600070E090E080E00E9435099B01AC01C50173
:100E7000B4010E941F0820E030E040E251E40E94EB
:100E80008B08609321027093220280932302909337
:100E900024020E945303882309F4A3C01091160270
:100EA000612F6F7770E090E080E00E94350920E0CC
:100EB00030E040E853E40E94C1094B015C016091BD
:100EC000170270E090E080E00E9435099B01AC01C0
:100ED000C501B4010E941F0820E030E040E251E467
:100EE0000E948B0817FD7BC0609325027093260239
:100EF000809327029093280226E636E646EE5FE3CB
:100F0000609125027091260280912702909128021B
:100F10000E94C10920E030E040E052E40E941F0836
:100F20006093290270932A0280932B0290932C02E3
:100F300060912102709122028091230290912402FB
:100F40000E94FD0870937201609371016091250207
:100F50007091260280912702909128020E94FD083C
:100F60007093700160936F0141E050E064E271E0C2
:100F70008DE292E00E948D00609171018DE292E01D
:100F80000E94BB0260916F018DE292E00E94BB0261
:100F900064EF71E080E090E00E947002209709F415
:100FA00049CF0E94F700882309F444CF0E94000033
:100FB00041CF9E3040F42850310981E001C0880FB4
:100FC0002A95EAF7E0CE2E503109F7CFC0922102E0
:100FD000D0922202E0922302F09224025ACF90583B
:100FE00083CFC0922502D0922602E0922702F0928F
:100FF0002802C0922902D0922A02E0922B02F0929B
:101000002C0296CF86E191E090932E0280932D02E0
:1010100080916D0190916E018D52924071F4E0913A
:101020004002F09141029081809142028095892393
:10103000808310926E0110926D0108955058BB2765
:10104000AA270E9436080C9487090E94790938F073
:101050000E94800920F039F49F3F19F426F40C9483
:1010600076090EF4E095E7FB0C947009E92F0E94D5
:10107000980958F3BA17620773078407950720F099
:1010800079F4A6F50C94BA090EF4E0950B2EBA2F5C
:10109000A02D0B01B90190010C01CA01A00111247E
:1010A000FF27591B99F0593F50F4503E68F11A162A
:1010B000F040A22F232F342F4427585FF3CF4695BB
:1010C00037952795A795F0405395C9F77EF41F16DD
:1010D000BA0B620B730B840BBAF09150A1F0FF0FA7
:1010E000BB1F661F771F881FC2F70EC0BA0F621F93
:1010F000731F841F48F4879577956795B795F79583
:101100009E3F08F0B0CF9395880F08F09927EE0F17
:101110009795879508950E949F080C9487090E94CF
:10112000800958F00E94790940F029F45F3F29F0C6
:101130000C94700951110C94BB090C9476090E940F
:10114000980968F39923B1F3552391F3951B550B37
:10115000BB27AA2762177307840738F09F5F5F4F8A
:10116000220F331F441FAA1FA9F335D00E2E3AF0C9
:10117000E0E832D091505040E695001CCAF72BD0E1
:10118000FE2F29D0660F771F881FBB1F2617370732
:101190004807AB07B0E809F0BB0B802DBF01FF2764
:1011A00093585F4F3AF09E3F510578F00C947009C8
:1011B0000C94BB095F3FE4F3983ED4F38695779592
:1011C0006795B795F7959F5FC9F7880F911D96951D
:1011D000879597F90895E1E0660F771F881FBB1F79
:1011E000621773078407BA0720F0621B730B840B26
:1011F000BA0BEE1F88F7E09508950E9404096894E1
:10120000B1110C94BB0908950E94A00988F09F5762
:1012100098F0B92F9927B751B0F0E1F0660F771F1A
:10122000881F991F1AF0BA95C9F714C0B13091F010
:101230000E94BA09B1E008950C94BA09672F782F7B
:101240008827B85F39F0B93FCCF3869577956795D5
:10125000B395D9F73EF490958095709561957F4F41
:101260008F4F9F4F0895E89409C097FB3EF49095E7
:101270008095709561957F4F8F4F9F4F9923A9F06F
:10128000F92F96E9BB279395F695879577956795FE
:10129000B795F111F8CFFAF4BB0F11F460FF1BC042
:1012A0006F5F7F4F8F4F9F4F16C0882311F096E9D5
:1012B00011C0772321F09EE8872F762F05C0662383
:1012C00071F096E8862F70E060E02AF09A95660F3C
:1012D000771F881FDAF7880F9695879597F90895F5
:1012E00097F99F6780E870E060E008959FEF80ECD9
:1012F000089500240A94161617061806090608957C
:1013000000240A9412161306140605060895092EE1
:101310000394000C11F4882352F0BB0F40F4BF2B50
:1013200011F460FF04C06F5F7F4F8F4F9F4F089590
:1013300057FD9058440F551F59F05F3F71F0479586
:10134000880F97FB991F61F09F3F79F0879508956B
:10135000121613061406551FF2CF4695F1DF08C08A
:10136000161617061806991FF1CF869571056105A7
:1013700008940895E894BB2766277727CB0197F94F
:1013800008950E94D4090C9487090E94790938F0C5
:101390000E94800920F0952311F00C9470090C94A0
:1013A000760911240C94BB090E94980970F3959F4B
:1013B000C1F3950F50E0551F629FF001729FBB274C
:1013C000F00DB11D639FAA27F00DB11DAA1F649FE8
:1013D0006627B00DA11D661F829F2227B00DA11D9B
:1013E000621F739FB00DA11D621F839FA00D611D21
:1013F000221F749F3327A00D611D231F849F600D42
:10140000211D822F762F6A2F11249F5750409AF06A
:10141000F1F088234AF0EE0FFF1FBB1F661F771FF6
:10142000881F91505040A9F79E3F510580F00C94C1
:1014300070090C94BB095F3FE4F3983ED4F38695A2
:1014400077956795B795F795E7959F5FC1F7FE2B61
:10145000880F911D9695879597F9089597FB072E0C
:1014600016F4009407D077FD09D00E94420A07FCC9
:1014700005D03EF4909581959F4F089570956195A4
:101480007F4F0895AA1BBB1B51E107C0AA1FBB1FBA
:10149000A617B70710F0A61BB70B881F991F5A9500
:1014A000A9F780959095BC01CD010895EE0FFF1F1F
:1014B0000590F491E02D099410E0C2E6D0E004C05C
:1014C000FE010E94560A2196C336D107C9F7F89447
:0214D000FFCF4C
:1014D200000000002D018D00BA007A01EB00C90066
:1014E200DD0000000000BB028D005003BA021703AA
:0614F2002F03A2024100DD
:00000001FF
